:020000040800F2
:10000000180D002011030008F960000839230008CA
:10001000F5600008911C0008ED6F0008000000006A
:100020000000000000000000000000002D65000836
:10003000951C000800000000C96100081568000850
:100040002B0300082B0300082B0300082B030008D8
:100050002B0300082B0300082B0300082B030008C8
:100060002B0300082B0300082B0300082B030008B8
:100070002B0300082B0300082B0300082B030008A8
:100080002B0300082B0300082B0300082B03000898
:100090002B0300082B0300082B0300082B03000888
:1000A0002B0300082B0300082B0300082B03000878
:1000B0002B0300082B0300082B0300082B03000868
:1000C0002B0300082B0300082B0300082B03000858
:1000D0002B030008D1690008AD6A0008496B0008CD
:1000E0002B0300082B0300082B0300082B03000838
:1000F0002B0300082B0300082B0300082B03000828
:100100002B0300082B0300082B0300082B03000817
:1001100099680008356900082B0300082B030008C4
:100120002B0300082B0300082B0300082B030008F7
:100130002B0300082B0300082B0300082B030008E7
:100140002B0300082B0300082B0300082B030008D7
:100150002B0300082B0300082B030008E56B0008A5
:100160002B0300082B0300082B0300082B030008B7
:100170002B0300082B0300082B0300082B030008A7
:100180002B0300082B03000800F002F800F0B0F881
:1001900014A696E8000CB244B344DA4501D100F04D
:1001A000A7F8BAE80F000FA696E83000A5EB040503
:1001B00004EB0607AAEB0704A7F101074FEA1515A0
:1001C0004FEA3414A4F10104AC4201D300F090F8DA
:1001D00013F0010F18BFFB1A43F0010300F001F800
:1001E000DBE71847B8970000D8970000103A24BF03
:1001F00078C878C1FAD8520724BF30C830C144BF8C
:1002000004680C6070470000704700000023002461
:1002100000250026103A28BF78C1FBD8520728BF16
:1002200030C148BF0B6070476E2900F0878170298C
:1002300000F0BD82662907F02687652907F023872D
:10024000672907F02087612907F01F8703681B0AC9
:1002500028BF41F08001692900F03481642900F051
:100260003181752900F02E816F2900F04B827829A9
:1002700000F08982E92900F0E581E42900F0E281BB
:10028000F52900F0DF81EF2900F04882F82900F01D
:1002900088820368DB0928BF41F08001632900F0F0
:1002A000C987732900F0CE87E32900F0D987F329A5
:1002B00000F0DE87002070471FB507F0D7FE9DE8ED
:1002C000030001F09BFA01F0C9F8040000200021AE
:1002D00007F072FD401C60600020002107F056FD11
:1002E000E06000F0CDFF1FBD10B501F032F810BD89
:1002F00001F086F81146FFF7DFFF06F0FBFF01F083
:100300004DFA03B4FFF7F0FF03BC06F0ABFE0000AC
:100310000948804709480047FEE7FEE7FEE7FEE799
:10032000FEE7FEE7FEE7FEE7FEE7FEE704480549D5
:10033000054A064B7047000025680008890100083F
:1003400018070020180D00201809002018090020A7
:10035000704700000FB4044910B503AA029800F0DA
:1003600001F910BC5DF814FB9400002040EA010381
:10037000024630B59B0710D14FF0013400E008C2AF
:1003800008C91D1B9D4315EAC41FF8D013F0FF01D7
:1003900002F8011B0DD01B0AF8E711F8013B002BF6
:1003A00002F8013B05D011F8013B002B02F8013B9C
:1003B000F3D130BD4FF000020429C0F0128010F0DC
:1003C000030C00F0C582CCF1040CBCF1020F18BF85
:1003D00000F8012BA8BF20F8022BA1EB0C0100F0C4
:1003E000B7BA5FEAC17C24BF00F8012B00F8012BEB
:1003F00048BF00F8012B704770477047704770473F
:1004000070B5044685690068C10601D5302600E054
:100410002026C00707D070BDD4E90121304690479F
:10042000206A401C20626D1EF6D570BD70B5044672
:1004300085690078C00707D170BDD4E9012120206B
:100440009047206A401C20626D1EF6D570BD096879
:100450004A0501D540B27047C905FCD500B27047C6
:1004600009684A0501D5C0B27047C905FCD580B2FC
:10047000704770B50C460546012A05D028788006DD
:1004800000D5EA69002302E0012305E05B1C9342EA
:1004900002D2E05C0028F9D1A869E618C01AA86168
:1004A000286A184428622846FFF7AAFF04E0D5E925
:1004B000012114F8010B9047B442F8D32846FFF706
:1004C000B5FF70BD2DE9F04106460024106875297E
:1004D000314616A510D0FFF7BAFF002802DA4042D5
:1004E00013A507E031688A0701D512A502E0490784
:1004F00004D511A5012401E0FFF7B2FF00210A2273
:1005000006F1240709E0B0FBF2FCB0FBF2F302FBBA
:100510001C00303078541846491C0028F3D123467B
:100520002A463046BDE8F04100F07CBA00000000E9
:100530002D0000002B000000200000001168026860
:10054000006A530501D508700AE0D30501D508807B
:1005500006E0130603D5C217C1E9000200E00860F7
:1005600001207047074B70B50D467B4400F045FEF7
:100570000446284600F080FE10B14FF0FF3070BDF9
:10058000204670BD576D00002DE9FF5F15468A4675
:100590000446DFF8AC80F8440027D8E900103E4656
:1005A000CDE9001010E03AF816106A4602A800F0F3
:1005B00003FF411C07D02178890603D5E269391869
:1005C00091420DD80744761C2078800602D5E06958
:1005D000B84205DDAE42E6DB3AF816000028E2D16B
:1005E000A069C01BA0612046FFF70AFFD8E90010F0
:1005F000CDE90010002017E03AF818106A4602A86A
:1006000000F0DAFEB0F1FF3F81460BD000250DF17E
:10061000080B05E0D4E901211BF8050090476D1C8B
:100620004D45F7D308F10100B0428046E4DB206A73
:10063000384420622046FFF7F9FEBDE8FF9F000026
:10064000F67A00002DE9F0418046D21D22F0070223
:100650000025D2E90002F52915A614D0011E72F179
:10066000000106DA0023D0EB030063EB020211A6BF
:1006700008E0D8F800108B0701D50FA602E0490763
:1006800001D50EA601251146002408F1240704E037
:1006900000F083F930323A55641C50EA0102F7D178
:1006A0002B46324621464046BDE8F04100F0BAB93B
:1006B000000000002D0000002B00000020000000C2
:1006C00030B4002100F1240408E002F00705D2084C
:1006D000303542EA4372DB086554491C52EA03058F
:1006E000F3D10468002310A2250708D504F02004E4
:1006F0000C4304D0C46901230CA2641EC46130BC45
:1007000000F090B910B5044621461068FFF7A8FE26
:1007100002462046BDE810400023D1E7D21D22F05A
:100720000701D1E90023CBE7000000003000000002
:10073000F0B40D460188090502D5214C7C4402E045
:100740001F4C7C440E34002100F1240608E002F026
:100750000F071209E75D42EA03721B097754491C2F
:1007600052EA0307F3D102780023120704D5702D53
:1007700006D009B1022311342246F0BC00F052B970
:1007800001231034F8E770B504460D462146106881
:10079000FFF766FE024629462046BDE8704000236A
:1007A000C6E7D21D22F00703D3E90023C0E70368A0
:1007B000126843F0200303600823C3610023B7E7F6
:1007C000587900002DE9F05F894604464FF0000A91
:1007D000DFF874B1FB44C0F820A02046E1688847E8
:1007E000002874D0252806D0D4E901219047206A3A
:1007F000401C2062F1E700265F462046E1688847FA
:100800002028054607DB312D05D2781910F8200C79
:1008100008B10643F1E7B00701D526F00406C4F895
:100820001CA00027C4F818A02A2D09D0284607F0DC
:10083000A5FA38B304EB8708303DC8F8185019E022
:1008400059F8041B204604EB87029161E168884750
:10085000012F054618D1E069002820DA26F020068D
:100860001DE0D8F8180000EB800005EB40003038A0
:10087000C8F818002046E1688847054607F07EFA68
:100880000028EED1012F0AD02E2D08D12046E16894
:1008900088477F1C0546022F46F02006C4DBA0696E
:1008A000002803DA404246F00106A061F00701D0BB
:1008B00026F010066C2D0BD0682D09D04C2D39D0A8
:1008C0006A2D35D0742D35D07A2D33D016E038E02E
:1008D000E1682F4620468847B842054609D16C2F6B
:1008E00026D04FF48060E1680643204688470546DD
:1008F00004E06C2F1AD04FF4807006430DB3A5F1BD
:100900004100192802D8203546F400664A46294697
:10091000204626604E46FFF787FC80B101280BD0A9
:10092000F61D26F0070000F1080956E74020E4E72D
:100930008020D8E70020D6E706F104094DE72846D5
:1009400052E7206ABDE8F09FE87800004FF000020F
:1009500000B5134694469646203922BFA0E80C50B5
:10096000A0E80C50B1F12001BFF4F7AF090728BF90
:10097000A0E80C5048BF0CC05DF804EB890028BF0C
:1009800040F8042B08BF704748BF20F8022B11F035
:10099000804F18BF00F8012B704730B5B0F10A0244
:1009A00071F100034FEA900E4EEA817EB0EB0E002B
:1009B00061EB91014FEA101E4EEA017E10EB0E0032
:1009C00041EB11114FEA102E4EEA016E10EB0E00B2
:1009D00041EB11214FEA104E4EEA014E10EB0E0092
:1009E00041EB1141401841F100014FEAD00040EACB
:1009F00041704FEAD1014FEA810444EA907410EB50
:100A0000800544EB01046D1944EB0404521BA3411F
:100A10004FF0000348BF0A3200D530BD401C41F101
:100A2000000130BD2DE9F0470D4699469246044637
:100A300000F124080168880604D5E06921F010015E
:100A4000216000E00120A84201DD471B00E00027F3
:100A5000A1697A1902EB0900081AA0612078C00682
:100A600002D42046FFF7CCFC002608E0D4E901219F
:100A70001AF806009047206A401C761C20624E45FA
:100A8000F4DB2078C0060AD52046FFF7B9FC06E063
:100A9000D4E9012130209047206A401C2062381E92
:100AA000A7F10107F4DC07E0D4E9012118F80500FB
:100AB0009047206A401C2062281EA5F10105F3DC46
:100AC0002046FFF7B3FC2078000602D50220BDE8DF
:100AD000F0870120FBE72DE9FF4F0C461E464FF043
:100AE000FF378BB0D2E90001DDF860800A908A46BA
:100AF000C1F30A5505B93D46002108464FF00000F4
:100B0000BAF1000F00F4400005DA00EB80004FF46A
:100B1000400101EA50004FEA9059B9F1010F00DDA0
:100B2000B9460A9850EA4A000ED044F61050A5F291
:100B3000FF3545432F14B8F1000F1ED07542291E12
:100B40001EDDC9F100021CE0B8F1010F4FF00000FA
:100B500001D0302103E0F24305E02154401CB042B3
:100B6000FBDB30460022002121540B99C1F808809C
:100B7000C1E900200FB0BDE8F08FBD1B6D1CDEE7A2
:100B80004A4600DA694206A800F0D4FC06AB93E8B6
:100B9000070003AB83E8070050460A9906F00DFDF5
:100BA0008DE80700A0F500501F3800900398002D35
:100BB0000ADD42F21F014A460844002303A90390BC
:100BC000684606F077FF09E0A0F500504A461F3856
:100BD000002303A90390684606F081FF8DE8070013
:100BE0000004000C03D04FF0FF30410800E0104635
:100BF000B8F1000F03D00022009215461EE0751ECA
:100C000005D4FFF7CAFE303262556D1EF9D5B346E2
:100C10000122084302D000227F1C04E02078302803
:100C200001D100227F1E002A099784D01DE0112DDA
:100C300007DAFFF7B2FE303262556D1C50EA01024E
:100C4000F5D1084302D00098C8B10EE00021681E1B
:100C500005E0235C625C63542254401E491C8142BF
:100C6000F7DBAB46A81B401E0990002004F80B00E0
:100C70000B98099AC0F80880C0E9002B7AE7112682
:100C80004FF0000857E72DE9F04F88460446D21D83
:100C900022F0070191B0D1E90001CDE90A0107F086
:100CA00055F802460B98C00F01D02D2007E02068B0
:100CB000810701D52B2002E0202101EAC000032A90
:100CC000099001D0072A05DB03464146204600F083
:100CD000F1FB0BE12078800601D5E06900E00620F9
:100CE000B8F1650F814606D0B8F1660F18D0B8F19B
:100CF000670F70D131E00020B9F1110F009001DBD6
:100D0000112301E009F101030AAA01A90CA8FFF7C8
:100D1000E2FEDDE90C70002609F10105834647E09B
:100D200001204B4600904FF000470AAA01A90CA8E9
:100D3000FFF7D1FEDDE90DB00C995D46002610B934
:100D400009F101000D18B9EB050003D4C0F1FF361D
:100D500009F10105A5EB09002BE0B9F1010F01DA5A
:100D60004FF001090020B9F1110F0090484601DD54
:100D7000112300E003460AAA01A90CA8FFF7ABFE65
:100D8000DDE90C704D4600268346207800070AD422
:100D9000AB4500DA5D4601A8012D04DD411911F8CB
:100DA000011C302907D04F4502DA17F1040F04DA8D
:100DB000012082460FE06D1EEEE7002F02DCED1BE6
:100DC0003E4403E0781CA84200DD7D1CB81B00F106
:100DD000010A4FF000472078000703D4AA4501DB41
:100DE0004FF0FF3A0021B7F1004F0DF143088DF8A5
:100DF000431024D002202B23002F01DA7F422D2321
:100E00000A21021EA0F1010000DC5FB197FBF1FC9A
:100E100097FBF1F201FB1C7C17460CF1300C08F833
:100E200001CDEEE7A8F1010003702188090501D585
:100E3000452100E06521A0F1010800F8011C099896
:100E40000FA9A1EB0807FF1D00B10120411901EB1B
:100E5000EA70A1693844081A401EA0612078C006D3
:100E600002D42046FFF7CCFA099828B1D4E9012131
:100E70009047206A401C20622078C00622D5204678
:100E8000FFF7BEFA1EE0002E04DBB34502DD01A829
:100E9000805D00E03020D4E901219047206A401CA9
:100EA0002062761CAAF101005FEA000A0AD100F074
:100EB000D5FAC0680168405CD4E901219047206AF6
:100EC000401C2062281EA5F10105DCDC07E0D4E906
:100ED000012118F8010B9047206A401C2062381E3F
:100EE000A7F10107F3DC2046FFF7A0FA032011B0B9
:100EF00041E600002DE9F04F04460D46D21D22F0D8
:100F0000070089B0D0E900974846394606F01EFF31
:100F10000246F80F01D02D2307E02068810701D594
:100F20002B2302E0202101EAC0038DF820300BB111
:100F3000012000E00020032A824601D0072A04DBBA
:100F40002946204600F0B6FA3FE12078800601D419
:100F50000D2500E0E569C7F30A560D2D49DA002199
:100F60004FEA175B08464FF00000002F00F44000E6
:100F700007DA00EB80004FF4400100EBD07001EA8B
:100F800060008115012901DD4FF0FF3100224FEA99
:100F9000850CBCF1180F06D31346ACF118004FF0C6
:100FA0008052C24003E04FF4801323FA0CF30CF19B
:100FB0000C0CBCF1200F04D3ACF1200C09FA0CF09E
:100FC00001E007FA0CF000294FF0004801DD18B9E4
:100FD0000FE00ED140450CD319EB02095F4121B956
:100FE000404502D19F4329EA0209BBEB175F00D0BD
:100FF000761C2088000502D57B48784402E07A48B8
:101000007844193808AA302302F80A30037C0AF120
:101010000101002E0AF1020A53546A4602DC4FF025
:10102000300101E04FF031014FF001088DF8001060
:1010300002D0A6F2FF3603E059EA470100D06B4E1A
:10104000002D02DC2178090704D54FF002082E217B
:101050008DF80110C44600210BE0C7F303433F01A4
:10106000C35C491C6D1E02F80830052908F101080F
:1010700001DA002DF1DC00210CE000EB1973491CB2
:101080001B786D1E082902F808304FEA091908F18B
:10109000010801DA002DF0DC21688B0602D516E08C
:1010A000A8F10108E04505DD02EB080313F8013C57
:1010B000302BF5D0B8F1000F09DD02EB080313F86F
:1010C000013C2E2B03D1090701D4A8F10108002D02
:1010D00005DD3E2102F808106D1E08F10108407C74
:1010E000002E02F8080008F1010804DA2D207642EB
:1010F00002F8080002E02B2002F808000A214FF451
:101100007A70864208F101080BDB96FBF0F330336E
:1011100002F8083096FBF0F308F1010800FB1366B3
:1011200001E0642E0CDB642096FBF0F3303302F810
:10113000083096FBF0F308F1010800FB136601E0AC
:101140000A2E06DB96FBF1F0303002F8080008F1B9
:10115000010896FBF1F001FB1060303002F8080046
:10116000A16908F1010808EB050202EB0A00081A60
:10117000A0612078C00602D42046FFF741F9216A19
:1011800008AE01EB0A00206204E0D4E9012116F860
:10119000010B9047BAF1010AF7D22078C00602D5B8
:1011A0002046FFF72DF96E4609E016F8010B3E28A0
:1011B0000FD0D4E901219047206A401C2062B8F189
:1011C0000108F2D22046FFF731F909B00320BDE84B
:1011D000F08F206A2844206203E0D4E90121302006
:1011E00090476D1EEBD3F8E7E670000002FCFFFFAE
:1011F00001694A1C02610878704700B58FB0CDE9DB
:1012000001310021059105497944CDE903101146CA
:101210006846FFF7D7FA0FB000BD0000E5FFFFFFFB
:1012200010B5436913B1AFF3008001E0FFF721F976
:10123000012010BD127800F124010A7000224A70CA
:101240000122EDE711684FF0FF32E9E710B543697D
:1012500013B1AFF3008001E0FFF796F9012010BD54
:10126000128800F1240182840022C2840122EDE769
:1012700011684FF0FF32E9E7007B00F08000704713
:1012800010B542485421FFF761FB41485421FFF754
:101290005DFB40485421FFF759FB3F493B483C4A1E
:1012A0003F4B08603D490A603A491960531C036589
:1012B000481C1065012008653B48344A39A1784430
:1012C00000F0CEF920B9384878440A3800F06FFAB7
:1012D00037482F4A35A1784400F0C2F920B9344884
:1012E00078440A3800F063FA32482A4A2FA1784439
:1012F00000F0B6F920B92F4878440A3800F057FAC0
:1013000040232248DC000021224600F085F920B16C
:1013100025487844543800F04AFA1D4822464023B4
:10132000002100F079F920B121487844543800F0C8
:101330003EFA184822461023002100F06DF90028DB
:1013400006D01C487844BDE81040563800F02FBA4B
:1013500010BD104870B5006D20F001040B4800F07E
:10136000F7F90B4800F0F4F90A4800F0F1F909E048
:10137000206D20F00105204600F0EAF9204600F03B
:1013800071F82C46002CF3D170BD00004000002005
:1013900094000020E800002000000020040000204D
:1013A0000800002072000000356E00007700000089
:1013B000216E00000D6E00002DE9F04116460C462E
:1013C000054600F043F8036893F80101012807D0AF
:1013D000FF2C12D8185D80B101202C70BDE8F0817F
:1013E000D3F807013246214603F20713C7182846EF
:1013F000BC46BDE8F041002360474FF0FF30EDE709
:10140000754600F0DBF9AE4605006946534620F00C
:101410000700854618B020B5FEF788FFBDE82040DC
:101420004FF000064FF000074FF000084FF0000BA0
:10143000AC46ACE8C009ACE8C009ACE8C009ACE80F
:10144000C00921F007018D467047000010B500F07B
:1014500005F8001D10BD00BF61690000004870471D
:101460005C01002070B50446051F00F0ABF9006870
:10147000002C14BF446870BD002C18BFAC423CBFA8
:1014800020466468F8D301680A18AA4218BF45606C
:1014900003D12A6805461144016028684119A14218
:1014A0001CBF6C6070BD6168696021680844286079
:1014B00070BD00002DE9F0411F4604460326016877
:1014C000072A01F4006004DB08B116A505E016A5A3
:1014D00003E008B115A500E015A521F0100020607B
:1014E000A069C01EA0610FB1401EA0612046FEF79A
:1014F00087FF4FB1D4E9012138469047206A401C4C
:101500002062C01C206206E0206AFAE7D4E90121CB
:1015100015F8010B9047761EF8D22046FEF786FF9D
:10152000BDE8F0814E414E006E616E00494E4600AE
:10153000696E66002DE9F047814616468AB0354847
:1015400078440DC88DE80D0032487844801C03AC07
:101550000DC884E80D0041F69B300844372190FB0C
:10156000F1F290FBF1F5A5F1800501FB12041B3CA3
:1015700002D56442012000E00020DFF898A08046F8
:101580000027FA44AAF1BE0A0EE0E0070AD032466C
:10159000684607EB470101230AEB810106F09FFA39
:1015A0008DE8070064107F1C002CEED1194F7F449A
:1015B000AE3F19E0E80715D007EB04100DF1180A4B
:1015C00090E80E008AE80E00C068F04201D1981938
:1015D00008903246012306A903A806F080FA03AB5F
:1015E00083E807006D10641C002DE3D14FF0010368
:1015F00032466946B8F1000F03A802D006F05AFA45
:1016000001E006F06CFAC9E90001C9F808200AB047
:10161000BDE8F0873C6C000070B5C468A50713D026
:10162000650211D4B2F5807F09D0B2F5007F06D0F3
:10163000B2F5806F08D1012300F1240106E05D1EA0
:101640006FF07F46B54201D3012070BD0161C361D7
:10165000416024F470611143C160002070BD00003E
:101660002DE9F0410C461646070047D0104600F021
:101670006FF82078611C61280AD0722802D0772880
:101680003CD102E00125002405E00225042402E00B
:10169000082448F2020511F8010B2B2806D0622815
:1016A00009D011F8010C74280AD00BE045F00305AD
:1016B00044F00204EFE745F0040544F00104EAE7D2
:1016C00044F010043846214605F0DCFC411C15D0DE
:1016D0000021316171604FF40071F560F16170615A
:1016E000200704D530460222002100F0E5F8306DD5
:1016F00040F0010030653046BDE8F0810020FBE796
:101700002DE9F0410D460646104C206DC10704D06E
:10171000410804D020F00104F7E722460EE05420EF
:1017200000F09BF807000ED0206D47F00101084340
:10173000542120653846FFF709F93A4629463046D4
:10174000BDE8F0418CE70020D6E700004000002013
:101750002DE9F04704464FF0FF380026C568D4E96C
:101760000497A80718D0204600F062F9384605F023
:1017700073FC002800DA4646280502D54846FFF7E4
:1017800071FE4C212046FFF7E1F8206D20F00100AA
:1017900020653046BDE8F0874046FBE710B50446BB
:1017A000AFF300802046BDE81040FEF7AABD10B59B
:1017B00000F088F9BDE8104000F07EB9004870479D
:1017C0003C010020004870474401002070477047EA
:1017D0007047704738B504460A4600206946AFF3A3
:1017E0000080002808BF38BD02460099204600F05E
:1017F000C7F9012038BD012000F016BAF8B5AFF3E3
:101800000080054600200C460C2000BF0646A819A3
:10181000A0420DD9324669460020AFF30080070090
:1018200008BF00F001FA0098A04218BF0546C4198D
:10183000FFF7C8FF05600746F01D20F007004619B6
:10184000284600F097F9B44208BFF8BDA21B314604
:101850003868BDE8F84000F093B970B50646FFF768
:10186000B1FF056806F10B0020F00704B4429CBFED
:10187000002070BD2B466A68BAB11068A04210D330
:1018800004F1080188423CBF5068586007D3516892
:10189000101941601168091B016058601460101D27
:1018A00070BD13465268002AE7D121462846FFF74B
:1018B00091FF0028DED170BD2DE9F04104461646A7
:1018C0000D464769007B80072ED0384605F0D4FBD3
:1018D00050BB3EB3012E02D0022E25D104E020469B
:1018E00000F068F905441DE0384605F0BFFBE168EB
:1018F000002841F01001E16005DA204600F058F8B8
:101900000120BDE8F081C9030BD56268E16A91420C
:1019100000D81146A26911442269891A814200DD6A
:1019200008460544002D01DA0220EAE7E16A606812
:10193000E268814206D29103E06203D522F40031CD
:1019400041F01002A6690027AE4213DCE16A814231
:1019500001D90B4600E0034603EB060C2369ACEB10
:10196000030CAC4506DD814201D98C4600E084467B
:101970009C4505D1A760276042F02000A5620DE0DC
:10198000AD1BE669AE1B8142A66000D90846C01AAD
:10199000281A20605819606022F02000034908408E
:1019A000E060002084F84870ABE70000BFCFD7FFAD
:1019B000C16821F4001141F08001C1600021816003
:1019C000016070472DE9F74F15460C464FF0FF3B7D
:1019D0003848D768D2F814A0074209D05046A96900
:1019E00005F056FB002819DB3248C0430740EF6082
:1019F0004FF000496FF000484C4501D3464600E0E7
:101A0000264600993B465046324605F047FBA969F9
:101A100020F00042B21A1144A96128B12846FFF70C
:101A2000C7FF5846BDE8FE8FA41BE5D10020F9E7AB
:101A300070B504460569C06A6168884200D80846E6
:101A4000E16821F42011E160C90312D5A84208D051
:101A50002246411B2846FFF7B5FF10B14FF0FF307B
:101A600070BD0020E562C4E90150E06820F48030D8
:101A7000E060002070BD10B50446C06820F0200072
:101A8000E060A16AA06988420DD02046FFF7D0FF30
:101A9000E06820F4405040F01000E060A06AA061CF
:101AA0002069E062606044F24001E0688843E060E1
:101AB00010BD000010000200002801D005F0D2BACD
:101AC0007047000010B5014602A000F094F8012014
:101AD00010BD000053494752545245443A205265C4
:101AE0006469726563743A2063616E2774206F7055
:101AF000656E3A200000000030B44FF0013C50F811
:101B0000042B51F8043BCCFA52F4D51A20D1FCB97D
:101B100050F8042B51F8043BCCFA52F4D51A17D1E3
:101B2000B4B950F8042B51F8043BCCFA52F4D51A4E
:101B30000ED16CB950F8042B51F8043BCCFA52F496
:101B4000D51A05D1002CDAD030BC4FF00000704718
:101B500029BAB1FA81F111F01801D1F120008440C5
:101B6000F2D1CA40CB4012F0FF0213F0FF0330BCA9
:101B7000D01A704700210160416070470C20704707
:101B8000034640688C46002818BF88423CBF034685
:101B90004068F8D318681844884207D00CF1030055
:101BA00020F00700001D411A521A0146081D0A6064
:101BB000FFF758BC10B50146C268900703D09006E5
:101BC00007D5886A0AE000F037F801210160881E15
:101BD00010BD8B69486818440B69C01A91F84830E9
:101BE0001BB191F84910401A10BD1103FCD5002813
:101BF000FADD401E10BD70B505460C460A2000E017
:101C00006D1C05F053FA35B128780028F8D102E0B0
:101C1000641C05F04BFA14B120780028F8D1BDE817
:101C200070400A2005F042BA10B500F009F8BDE88E
:101C30001040FFF741BF0000004870473C01002002
:101C400010B5012805D0002103A0FFF7D4FF012023
:101C500010BD09A1F8E7000053494752544D454DC6
:101C60003A204F7574206F662068656170206D653D
:101C70006D6F7279000000003A2048656170206D38
:101C8000656D6F727920636F727275707465640030
:101C9000FFE7FEE77047000082B001908DF8031067
:101CA0009DF8030050B1FFE7019A4FF0204151F831
:101CB000220040F0010041F822000CE0019A4FF0B0
:101CC000204151F822004FF6FE73C0F20F03184076
:101CD00041F82200FFE702B07047000080B585B0F0
:101CE00004900020039002900190049800684FF047
:101CF000204151F82000039003988022CFF6F7721C
:101D000010400390049A00925068D2F808E0D2F88C
:101D10000CC0136940EA0E0040EA0C0018435369F6
:101D2000184393691843D3691843136A1843536AD5
:101D30001843936A1843D36A1843126B02430398FB
:101D4000104303900398049A126841F82200049803
:101D5000806808280BD1FFE7049802684FF0204103
:101D600051F8220040F0400041F82200FFE70498BB
:101D700000680421CAF2000151F820000290029884
:101D800000F0404002900498426B1068D2F804E0E2
:101D9000D2F808C0D36840EA0E1040EA0C2040EAAE
:101DA0000340136940EA0350536940EA03609269B3
:101DB00002430298104302900298049A126841F874
:101DC00022000498C06AB0F5804F28D1FFE704983C
:101DD000006840F20411CAF2000151F8200001909D
:101DE00001980022CCF6F072104001900498826BAA
:101DF0001068D2F804E0D2F808C0D36840EA0E10A8
:101E000040EA0C2040EA03409269024301981043E3
:101E100001900198049A126841F822000AE004989F
:101E2000026840F20411CAF200016FF0704041F8FC
:101E30002200FFE705B080BD80B588B00690ADF800
:101E400016100492039300200790BDF81600B0F519
:101E5000006F07DBFFE704208DF81E000120ADF8BE
:101E60001C000DE0BDF816000003029006980299D0
:101E7000049A039B00F030F8019001980790FFE767
:101E8000079808B080BD000080B588B00690ADF816
:101E900016100492039300200790BDF81600B0F5C9
:101EA000006F07DBFFE704208DF81E000120ADF86E
:101EB0001C000DE0BDF81600000302900698029980
:101EC000049A039B00F036F8019001980790FFE711
:101ED000079808B080BD000080B588B006900591D5
:101EE00004920393002001900790069804F046FCAA
:101EF0000698032104F04CFC0698059905F086F835
:101F000001980290FFE70298039988420CDAFFE7F4
:101F10000698FF2104F03CFC0499029A8854FFE7DC
:101F2000029801300290EEE7069804F01DFC079835
:101F300008B080BD80B588B00690059104920393E7
:101F40000598039908440138029000208DF8070095
:101F5000079002986FF30B00059940F6FF729143CA
:101F6000884207D0FFE704208DF81E000020ADF85E
:101F70001C0049E00698012105F078F9FFE7059873
:101F80000299884234D8FFE79DF8070090B9FFE72F
:101F9000069805F051F8069804F0F0FB0698022127
:101FA00004F0F6FB0698059905F030F801208DF84D
:101FB0000700FFE7069804994A1C0492097804F088
:101FC000E7FB9DF81400FF280ED1FFE79DF80700FE
:101FD00050B1FFE7069804F0C7FB069805F008F833
:101FE00000208DF80700FFE7059801300590C6E74F
:101FF0009DF8070038B1FFE7069804F0B5FB069896
:1020000004F0F6FFFFE7FFE7079808B080BD000087
:1020100080B588B007900798006A04F023FB079802
:10202000006800F06DF80798006900F069F80798FB
:10203000806900F065F80798806800F061F80798FB
:1020400018300521009100F033F8009907981030FE
:1020500000F02EF800990798083000F029F807984A
:102060000121019100F0E0F80020ADF81600ADF874
:102070001200ADF81000ADF81A00ADF80E00ADF882
:102080000A00ADF818004FF48270ADF80C004FF460
:102090000070ADF814000798006A0DF10A0104F011
:1020A00011FA01990798006A04F0CAF908B080BDD6
:1020B00080B586B005908DF813100598006800F083
:1020C0001FF802208DF80C0000218DF80E100599E4
:1020D000898802918DF80D000598006802A900F02A
:1020E00027F8059801680191808800F019F90146E8
:1020F00001989DF8132000F0C3F806B080BD0000E1
:1021000080B582B0019001980021CBF6FE710844A1
:10211000800AADF80200BDF8021040F21000C2F2D1
:10212000000050F82100012104F050F802B080BDF9
:1021300085B00490039100200290019000900290DD
:10214000FFE702980F286CD8FFE70299012088402A
:102150000190039800680199084000900098019947
:10216000884259D1FFE702984100032000FA01F2AA
:10217000049908689043086003980079029949001F
:1021800000FA01F204990868104308600398007986
:10219000012805D0FFE703980079022827D1FFE73F
:1021A00002984100032000FA01F2049988689043E4
:1021B0008860039840790299490000FA01F2049975
:1021C000886810438860BDF80810012000FA01F209
:1021D000049948689043486003988079BDF80810D6
:1021E000884082B20499486810434860FFE7BDF810
:1021F00008004100032000FA01F20499C8689043E6
:10220000C8600398C0790299490000FA01F2049964
:10221000C8681043C860FFE7FFE7029801300290EA
:102220008FE705B07047000080B584B00390ADF82B
:102230000A1003980068FFF763FF01208DF804007F
:1022400000208DF8060003988088009002208DF809
:102250000500039800686946FFF76AFFBDF80A00A9
:1022600030B9FFE703990868898800F043F805E072
:1022700003990868898800F049F8FFE704B080BD39
:1022800084B00390ADF80A108DF809200020019069
:1022900000909DF80900BDF80A1001F007018900BF
:1022A00088400190BDF80A3003F0070081000F203C
:1022B00000FA01F203986FF0030101EA53010144AF
:1022C000086A904308620398BDF80A1047F6FC724A
:1022D00002EA51010844006A0199084300900098FD
:1022E0000399BDF80A3002EA53021144086204B0AF
:1022F0007047000082B00190ADF80210BDF80200F6
:1023000000040199886102B07047000082B001901A
:10231000ADF80210BDF802000199886102B0704763
:1023200081B0ADF80200BDF8020090FAA0F0B0FA5A
:1023300080F001B070470000FFE7FEE780B584B091
:10234000ADF80E0000210091029140F25440C2F21B
:10235000000002880192428801985043019008468B
:1023600003F0F6FB03F0A8FE00980290FFE7029846
:10237000019988420BD2FFE7BDF80E008021C6F616
:1023800000410880FFE7029801300290EFE704B0B7
:1023900080BD000080B582B08DF807009DF8070071
:1023A00040F25441C2F2000188719DF807000028F4
:1023B00040F08080FFE740F25440C2F20000F0217C
:1023C00001804FF4A0714180808845F2105188420D
:1023D00014D1FFE740F25441C2F200014FF43050F3
:1023E00008814FF4285048814FF42C5088814FF4D5
:1023F000F07008804FF44870488026E040F2544066
:10240000C2F20000808841F66311884211D1FFE7D3
:1024100040F25441C2F200012C2008812B20488157
:102420002A2088814FF4F07008804FF4487048806B
:102430000AE040F25441C2F200012C2008812A2017
:1024400048812B208881FFE7FFE740F25440C2F229
:102450000000808845F2103188420AD0FFE740F240
:102460005440C2F20000808847F2967188420BD136
:10247000FFE740F25441C2F200014FF4A07008801F
:102480004FF4F0704880FFE740F25440C2F2000081
:10249000808849F6060188420BD1FFE740F254419B
:1024A000C2F200014FF4F07008804FF44870488089
:1024B000FFE773E040F25440C2F200004FF4A07115
:1024C0000180F0214180808845F21051884214D16A
:1024D000FFE740F25441C2F200014FF4305008814E
:1024E0004FF4285048814FF42C5088814FF44870A5
:1024F00008804FF4F070488030E040F25440C2F25F
:102500000000808841F6631188420AD0FFE740F25C
:102510005440C2F20000808849F60601884211D179
:10252000FFE740F25441C2F200012C2008812A202A
:1025300048812B2088814FF4487008804FF4F07058
:1025400048800AE040F25441C2F200012C20088188
:102550002A2048812B208881FFE7FFE740F2544082
:10256000C2F20000808845F2103188420AD0FFE7AD
:1025700040F25440C2F20000808847F296718842CF
:102580000BD1FFE740F25441C2F200014FF4F0706A
:1025900008804FF4A0704880FFE7FFE7002003F0B9
:1025A00027F902B080BD000080B586B0ADF81600F6
:1025B000ADF81410ADF8122040F25440C2F2000001
:1025C000808845F21051884229D1FFE740F25440FB
:1025D000C2F200000390408903F05EFD9DF81700F1
:1025E00003F04AFD03984089013080B203F054FDA6
:1025F0009DF8160003F040FD0398808903F04CFD20
:102600009DF8150003F038FD03988089013080B2F1
:1026100003F042FD9DF8140003F02EFD67E040F248
:102620005440C2F20000808841F66311884240D1D4
:10263000FFE740F25440C2F20000807960B9FFE742
:1026400040F25440C2F200000188BDF81600C043B9
:102650000844ADF81600FFE740F25440C2F2000013
:102660000290408903F018FD9DF8170003F004FD67
:102670009DF8160003F000FD9DF8170003F0FCFC28
:102680009DF8160003F0F8FC0298808903F004FD21
:102690009DF8150003F0F0FC9DF8140003F0ECFC2D
:1026A0009DF8150003F0E8FC9DF8140003F0E4FC2D
:1026B0001CE040F25440C2F200000190408903F057
:1026C000EBFC9DF8170003F0D7FC9DF8160003F013
:1026D000D3FC0198808903F0DFFC9DF8150003F01E
:1026E000CBFC9DF8140003F0C7FCFFE7FFE740F2C6
:1026F0005440C2F2000000897E21C6F600410880E5
:10270000BDF812008021C6F60041088006B080BDE9
:1027100080B5ADF57C7D7A200121DB9103F056FD7B
:10272000DB99084603F06EFDDB984FF40041FA9107
:102730008DF8EC030021D9918DF8EE130221CB9195
:102740008DF8ED138DF8EF0340F20040C4F2020063
:10275000FAA9CD91FFF7ECFCCB9BCD99D99ADB98E8
:102760004CF2337CCDF8E8C38DF8EC338DF8EE23D2
:102770000322CC928DF8ED238DF8EF0340F6004054
:10278000C4F20200CE90FFF7D3FCDDF82CC3CC9A44
:10279000CD99D99BDB984FF6807ECDF8E8E38DF894
:1027A000ECC38DF8EE338DF8ED238DF8EF0341F295
:1027B0000000C4F20200D190FFF7BAFCDDF82CC390
:1027C000CC9ACD99D99BDB984FF4805ECDF860E32D
:1027D000CDF8E8E38DF8ECC38DF8EE338DF8ED23FA
:1027E0008DF8EF0341F20040C4F20200D290FFF7EF
:1027F0009FFCDDF82CC3CC9ACD99D99BDB98DDF8F2
:1028000060E3CDF8E8E38DF8ECC38DF8EE338DF896
:10281000ED238DF8EF0341F60000C4F20200D390DF
:10282000FFF786FCCE98D9990C22D492FFF728FDA9
:10283000CE98D49ADB99FFF723FDCE98D49A042141
:10284000FFF71EFDCE98D49A0521FFF719FDCE980B
:10285000D49A0821D791FFF713FDCE98D49A092175
:10286000D691FFF70DFDCE98D49A0A21CF91FFF7AC
:1028700007FDCE98D49A0E21D091FFF701FDCE9896
:10288000D49A0F21D591FFF7FBFCD198D49A072158
:10289000FFF7F6FCD198D49AD799FFF7F1FCD198BD
:1028A000D49AD699FFF7ECFCCF99D198D49AFFF738
:1028B000E7FCD198D49A0B21FFF7E2FCD198D49A87
:1028C0001146FFF7DDFCD198D49A0D21FFF7D8FC13
:1028D000D099D198D49AFFF7D3FCD198D49AD599AE
:1028E000FFF7CEFCD298D49A1146FFF7C9FCD398D3
:1028F000D49A1146FFF7C4FCDDF854C3D69BD79A8F
:10290000D899D998CDF890C3E5904FF03C0CCDF80C
:1029100098C3E790E890E990EA90DD93DE90DF922B
:10292000E090E190E290E3900622DA92EB92EC9054
:10293000ED901022EE92EF90F190F090F290F390E3
:10294000F491F5904FF48041F691F790E4A8F89057
:10295000DDA8F990EBA8FFF7C1F9DA98DB99FFF74A
:102960009BF9322004F0C2FBD32003F095FB02F068
:10297000FFFE40F25441C2F20001DC91888002F077
:10298000F7FEDC99888002F0F3FEDC998880888865
:102990000002888002F0ECFE0246DC988188114338
:1029A0008180808849F24131884200F01D81FFE733
:1029B000042003F071FB02F0DBFE40F25441C2F24E
:1029C0000001CA91888002F0D3FECA99888002F083
:1029D000CFFECA99888088880002888002F0C8FEED
:1029E0000246CA98818811438180808848F25251FA
:1029F000884208D1FFE740F25441C2F2000147F299
:102A000089708880FFE740F25440C2F2000080885D
:102A100047F28971884200F0E680FFE7D42003F096
:102A20003BFB02F0A5FE40F25441C2F20001C99105
:102A3000888002F09DFEC999888002F099FEC999AC
:102A4000888088880002888002F092FE0246C99839
:102A5000818811438180808845F21031884200F0DE
:102A6000C180FFE7D32003F017FB02F081FE40F2A4
:102A70005441C2F20001C891888002F079FEC899E1
:102A8000888002F075FEC899888088880002888056
:102A900002F06EFE0246C8988188114381808088CA
:102AA00047F29671884200F09C80FFE74FF4704037
:102AB000552103F00BFB4FF20100AA2103F006FBA6
:102AC0004FF20200522103F001FB4FF203000821F4
:102AD00003F0FCFA4FF20400012103F0F7FA4FF47F
:102AE000454003F0D9FA02F043FE40F25441C2F2ED
:102AF0000001C79188808888000288804CF20150CC
:102B000003F0CAFA02F034FEC799024688881043DF
:102B10008880052004F0EAFAC7988088B0F5004F55
:102B200008D1FFE740F25441C2F2000145F21050D3
:102B30008880FFE740F25440C2F20000808845F2EE
:102B4000105188424CD0FFE7D32003F0A5FA02F0E1
:102B50000FFE40F25441C2F20001C691888002F09B
:102B600007FEC699888002F003FEC699888088888F
:102B70000002888002F0FCFD0246C698818811435D
:102B80008180808849F60601884228D0FFE7A1208D
:102B900003F082FA02F0ECFD40F25441C2F200016F
:102BA000C591888002F0E4FDC5998880888800027C
:102BB000888002F0DDFD0246C5988188114381803E
:102BC000808845F26171884208D1FFE740F25441A4
:102BD000C2F2000141F663108880FFE7FFE7FFE7DC
:102BE000FFE7FFE7FFE7FFE740F25440C2F20000D3
:102BF000808849F2413188423CD0FFE740F254409E
:102C0000C2F20000808847F28971884232D0FFE723
:102C100040F25440C2F20000808845F210318842F0
:102C200028D0FFE740F25440C2F20000808845F20D
:102C3000105188421ED0FFE740F25440C2F200001B
:102C4000808841F66311884214D0FFE740F2544077
:102C5000C2F20000808847F2967188420AD0FFE7EE
:102C600040F25440C2F20000808849F606018842D2
:102C70002DD1FFE740F21C11CAF20001086820F0D4
:102C80000F000860086820F470600860086840F071
:102C90000400086040F25440C2F20000808847F20D
:102CA0008971884209D1FFE740F21C11CAF2000184
:102CB000086840F48060086008E040F21C11CAF225
:102CC0000001086840F480600860FFE7FFE740F219
:102CD0005440C2F20000C490818849F68F10C0F6BB
:102CE0000000FDF737FBC498808849F241318842E3
:102CF00040F02381FFE7CF2003F0CEF90020C290FF
:102D000003F0BAF9C120B89003F0B6F93020B990B9
:102D100003F0B2F9ED2003F0BFF9642003F0ACF941
:102D2000032003F0A9F9122003F0A6F9812003F093
:102D3000A3F9E82003F0B0F9852003F09DF91020F5
:102D4000BC9003F099F97A2003F096F9CB2003F0B8
:102D5000A3F9392003F090F92C2003F08DF9C298E3
:102D600003F08AF9342003F087F9022003F084F994
:102D7000F72003F091F9202003F07EF9EA2003F018
:102D80008BF9C29803F078F9C29803F075F9C02066
:102D900003F082F91B2003F06FF9B89803F07CF977
:102DA0000120BF9003F068F9C52003F075F9B998C8
:102DB00003F062F9B99803F05FF9C72003F06CF9EA
:102DC000B72003F059F9362003F066F9482003F0E4
:102DD00053F93A2003F060F9552003F04DF9B12082
:102DE00003F05AF9C29803F047F91A2003F044F9A6
:102DF000B62003F051F90A20BB9003F03DF9A22060
:102E000003F03AF9F22003F047F9C29803F034F9DD
:102E1000262003F041F9BF9803F02EF9E02003F0DB
:102E20003BF90F20BD9003F027F92A20C19003F051
:102E300023F9282003F020F90820BA9003F01CF9A8
:102E40000E2003F019F9BA9803F016F9542003F094
:102E500013F9A92003F010F9432003F00DF9BB98F2
:102E600003F00AF9BD9803F007F9C29803F004F9DA
:102E7000C29803F001F9C29803F0FEF8C29803F07B
:102E8000FBF8E12003F008F9C29803F0F5F81520EB
:102E900003F0F2F8172003F0EFF8072003F0ECF846
:102EA0001120C39003F0E8F8062003F0E5F82B208A
:102EB000BE9003F0E1F8562003F0DEF83C2003F06A
:102EC000DBF8052003F0D8F8BC9803F0D5F8BD98DE
:102ED00003F0D2F83F20C09003F0CEF8C09803F082
:102EE000CBF8BD9803F0C8F8BE9803F0D5F8C298A7
:102EF00003F0C2F8C29803F0BFF8BF9803F0BCF823
:102F0000C09803F0B9F8C19803F0C6F8C29803F06E
:102F1000B3F8C29803F0B0F8C29803F0ADF8EF2010
:102F200003F0AAF8C39803F0B7F8782004F0DEF8AD
:102F3000292003F0B1F802F0F3BB40F25440C2F292
:102F40000000808847F28971884240F0E180FFE705
:102F5000112003F0A1F8782004F0C8F8362003F01F
:102F60009BF80020B69003F087F83A2003F094F81D
:102F7000052003F081F8B22003F08EF80C20AD900C
:102F800003F07AF8AD9803F077F8B69803F074F888
:102F90003320AC9003F070F8AC9803F06DF8B720D4
:102FA00003F07AF8352003F067F8BB2003F074F8DB
:102FB0003220AE9003F060F8C02003F06DF8AD98B9
:102FC00003F05AF8C22003F067F80120B79003F02D
:102FD00053F8C32003F060F8102003F04DF8C4202C
:102FE00003F05AF8202003F047F8C62003F054F805
:102FF0000F2003F041F8D020AF9003F04DF8A4204B
:1030000003F03AF8A12003F037F8E02003F044F889
:10301000AF9803F031F8B69803F02EF80220B09084
:1030200003F02AF80720B19003F026F80A20B290A6
:1030300003F022F82820B39003F01EF8AE9803F0B6
:103040001BF8442003F018F8422003F015F806207E
:1030500003F012F80E20B49003F00EF8122003F0E3
:103060000BF8142003F008F81720B59003F004F8CB
:10307000E12003F011F8AF9802F0FEFFB69802F0DD
:10308000FBFFB09802F0F8FFB19802F0F5FFB2989C
:1030900002F0F2FFB39802F0EFFF312002F0ECFFF4
:1030A000542002F0E9FF472002F0E6FFB49802F056
:1030B000E3FF1C2002F0E0FFB59802F0DDFF1B20CB
:1030C00002F0DAFF1E2002F0D7FF2A2002F0E4FF10
:1030D000B69802F0D1FFB69802F0CEFFB69802F093
:1030E000CBFFEF2002F0C8FF2B2002F0D5FFB698EF
:1030F00002F0C2FFB69802F0BFFFB79802F0BCFF23
:103100003F2002F0B9FF292002F0C6FF02F007BB02
:1031100040F25440C2F20000808845F210318842EB
:1031200040F0C887FFE7ED2002F0B6FF01207F9056
:1031300002F0A2FFFE2002F09FFFEE2002F0ACFFA3
:10314000DE2002F099FF2120699002F095FFF12026
:1031500002F0A2FF7F9802F08FFFDF2002F09CFFB9
:103160001020A39002F088FFC4208B9002F094FFFF
:103170008F2002F081FFC620669002F08DFF0020B4
:10318000A89002F079FFE220749002F075FF749825
:1031900002F072FF749802F06FFFBF2002F07CFF14
:1031A000AA209F9002F068FFB02002F075FF0D206A
:1031B0005E9002F061FFA89802F05EFF5E9802F058
:1031C0005BFFA89802F058FF1120A59002F054FF71
:1031D000A89802F051FF192002F04EFFA89802F0C3
:1031E0004BFF699802F048FFA89802F045FF2D2098
:1031F00002F042FFA89802F03FFF3D2002F03CFFA2
:10320000A89802F039FF5D20849002F035FFA8985D
:1032100002F032FF849802F02FFFA89802F02CFFF2
:10322000B12002F039FF802002F026FFA89802F0BA
:1032300023FF8B206E9002F01FFFA89802F01CFF66
:1032400096205F9002F018FFA89802F015FFB220B8
:1032500002F022FFA89802F00FFFA89802F00CFFDE
:103260000220819002F008FFA89802F005FF0320D9
:10327000609002F001FFA89802F0FEFEB320899052
:1032800002F00AFFA89802F0F7FEA89802F0F4FEF8
:10329000A89802F0F1FEA89802F0EEFEA89802F0BD
:1032A000EBFEA89802F0E8FEA89802F0E5FEA898C8
:1032B00002F0E2FEA89802F0DFFEA89802F0DCFE21
:1032C000A89802F0D9FEA89802F0D6FEA89802F0BD
:1032D000D3FEA89802F0D0FEA89802F0CDFEA898E0
:1032E00002F0CAFEA89802F0C7FEA89802F0C4FE39
:1032F000A89802F0C1FEA89802F0BEFEA89802F0BD
:10330000BBFEA89802F0B8FEA89802F0B5FEA898F7
:1033100002F0B2FEB42002F0BFFE6E9802F0ACFEE6
:10332000A89802F0A9FE5F9802F0A6FEA89802F005
:10333000A3FEA12002F0A0FEA89802F09DFEB520F9
:1033400002F0AAFE819802F097FEA89802F094FE7F
:10335000609802F091FEA89802F08EFE0420619021
:1033600002F08AFEA89802F087FEB62002F094FED2
:10337000A89802F081FEA89802F07EFEB7207B900C
:1033800002F08AFEA89802F077FEA89802F074FE78
:103390003F2002F071FEA89802F06EFE5E2002F05F
:1033A0006BFEA89802F068FE6420A69002F064FE0E
:1033B000A89802F061FE8C2002F05EFEA89802F050
:1033C0005BFEAC2002F058FEA89802F055FEDC200F
:1033D0008E9002F051FEA89802F04EFE702002F08E
:1033E0004BFEA89802F048FE902002F045FEA898F7
:1033F00002F042FEEB2002F03FFEA89802F03CFEF5
:103400008E9802F039FEA89802F036FEB82002F03D
:1034100043FEA89802F030FEA89802F02DFEA8986E
:1034200002F02AFEA89802F027FEA89802F024FED7
:10343000A89802F021FEA89802F01EFEA89802F0BB
:103440001BFEBA2002F028FE2420649002F014FE35
:10345000A89802F011FEA89802F00EFEA89802F0BB
:103460000BFEC12002F018FE2020679002F004FE3F
:10347000A89802F001FE542002F0FEFDA89802F088
:10348000FBFDFF20A99002F0F7FDA89802F0F4FDE3
:10349000C2207C9002F000FE0A20769002F0ECFD43
:1034A000A89802F0E9FD619802F0E6FDA89802F004
:1034B000E3FDC32002F0F0FD3C20829002F0DCFD31
:1034C000A89802F0D9FD3A20A49002F0D5FDA89862
:1034D00002F0D2FD392002F0CFFDA89802F0CCFD19
:1034E000372002F0C9FDA89802F0C6FD829802F0CC
:1034F000C3FDA89802F0C0FD36206B9002F0BCFD21
:10350000A89802F0B9FD3220919002F0B5FDA8987C
:1035100002F0B2FD2F20629002F0AEFDA89802F0FA
:10352000ABFD2C20AB9002F0A7FDA89802F0A4FD03
:103530002920A79002F0A0FDA89802F09DFD26206A
:10354000639002F099FDA89802F096FD649802F04D
:1035500093FDA89802F090FD649802F08DFDA89864
:1035600002F08AFD2320959002F086FDA89802F0D3
:1035700083FD829802F080FDA89802F07DFD6B9893
:1035800002F07AFDA89802F077FD919802F074FDA0
:10359000A89802F071FD629802F06EFDA89802F002
:1035A0006BFDAB9802F068FDA89802F065FDA79846
:1035B00002F062FDA89802F05FFD639802F05CFDE6
:1035C000A89802F059FD649802F056FDA89802F000
:1035D00053FD649802F050FDA89802F04DFD9598B7
:1035E00002F04AFDA89802F047FD8B9802F054FDC6
:1035F0006220789002F040FDA89802F03DFD052081
:10360000759002F039FDA89802F036FD842086906E
:1036100002F032FDA89802F02FFDF020A09002F0F9
:103620002BFDA89802F028FD1820659002F024FDDB
:10363000A89802F021FDA42002F01EFDA89802F037
:103640001BFD659802F018FDA89802F015FD5020AA
:10365000A19002F011FDA89802F00EFD0C2002F0DE
:103660000BFDA89802F008FD1720689002F004FDF9
:10367000A89802F001FD952002F0FEFCA89802F047
:10368000FBFCF320A29002F0F7FCA89802F0F4FCF7
:10369000E6208F9002F0F0FCA89802F0EDFCC52027
:1036A00002F0FAFC919802F0E7FCA89802F0E4FC22
:1036B00044209E9002F0E0FCA89802F0DDFC65201A
:1036C00002F0DAFCA89802F0D7FC7620929002F083
:1036D000D3FCA89802F0D0FC88209A9002F0CCFC91
:1036E000A89802F0C9FC669802F0D6FC679802F030
:1036F000C3FCA89802F0C0FC689802F0BDFCA89832
:1037000002F0BAFC7F9802F0B7FCA89802F0B4FC73
:10371000C7207D9002F0C0FCA89802F0ADFCA898EC
:1037200002F0AAFCA89802F0A7FCA89802F0A4FC5A
:10373000C82002F0B1FCA89802F09EFCA89802F004
:103740009BFCA89802F098FCA89802F095FCC92070
:1037500002F0A2FCA89802F08FFCA89802F08CFC62
:10376000A89802F089FCA89802F086FCA89802F0BC
:1037700083FCA89802F080FCA89802F07DFCA89831
:1037800002F07AFCA89802F077FCA89802F074FC8A
:10379000A89802F071FCA89802F06EFCA89802F0BC
:1037A0006BFCA89802F068FCA89802F065FCA89849
:1037B00002F062FCE020739002F06EFC16206A902A
:1037C00002F05AFCA89802F057FC1C20779002F0F7
:1037D00053FCA89802F050FC699802F04DFCA898A0
:1037E00002F04AFC6B9802F047FCA89802F044FCF7
:1037F000462002F041FCA89802F03EFC52206C905A
:1038000002F03AFCA89802F037FCA69802F034FCCB
:10381000A89802F031FC7A206D9002F02DFCA89857
:1038200002F02AFC6E9802F027FCA89802F024FC13
:1038300099209C9002F020FCA89802F01DFCA82082
:103840006F9002F019FCA89802F016FCB920709055
:1038500002F012FCA89802F00FFC8B9802F00CFC0E
:10386000A89802F009FCCA20719002F005FCA89803
:1038700002F002FCD220729002F0FEFBA89802F047
:10388000FBFBD92002F0F8FBA89802F0F5FB739837
:1038900002F0F2FBA89802F0EFFBA29802F0ECFB1A
:1038A000A89802F0E9FBE12002F0F6FB6A9802F02A
:1038B000E3FBA89802F0E0FB779802F0DDFBA89804
:1038C00002F0DAFB222002F0D7FBA89802F0D4FB2A
:1038D0006B9802F0D1FBA89802F0CEFB45209790A0
:1038E00002F0CAFBA89802F0C7FB6C9802F0C4FB78
:1038F000A89802F0C1FBA69802F0BEFBA89802F0BF
:10390000BBFB6D9802F0B8FBA89802F0B5FB6E986F
:1039100002F0B2FBA89802F0AFFB9C9802F0ACFB5F
:10392000A89802F0A9FB6F9802F0A6FBA89802F0F5
:10393000A3FB709802F0A0FBA89802F09DFB8B9867
:1039400002F09AFBA89802F097FB719802F094FBA2
:10395000A89802F091FB729802F08EFBA89802F0F2
:103960008BFBD82002F088FBA89802F085FB7398A7
:1039700002F082FBA89802F07FFBA29802F07CFB89
:10398000A89802F079FB749802F086FB759802F013
:1039900073FBA89802F070FB0B2002F06DFBA89857
:1039A00002F06AFB1B2002F067FBA89802F064FBA0
:1039B0003420909002F060FBA89802F05DFB9E9886
:1039C00002F05AFBA89802F057FB4F2002F054FB7C
:1039D000A89802F051FB612002F04EFBA89802F07B
:1039E0004BFB792002F048FBA89802F045FB9A981F
:1039F00002F042FBA89802F03FFB9720799002F07A
:103A00003BFBA89802F038FBA6207A9002F034FB2A
:103A1000A89802F031FB7B9802F02EFBA89802F0E8
:103A20002BFB7C9802F028FBA89802F025FB7D98E0
:103A300002F022FBA89802F01FFBD1207E9002F03A
:103A40001BFBA89802F018FBD62002F015FBA898E3
:103A500002F012FBDD20809002F00EFBA89802F02D
:103A60000BFBA29802F008FBA89802F005FBE320EC
:103A700002F012FB759802F0FFFAA89802F0FCFA27
:103A8000769802F0F9FAA89802F0F6FA779802F020
:103A9000F3FAA89802F0F0FA3320969002F0ECFACC
:103AA000A89802F0E9FA9E9802F0E6FAA89802F0C7
:103AB000E3FAA19802F0E0FAA89802F0DDFA78980B
:103AC00002F0DAFAA89802F0D7FA782002F0D4FAD5
:103AD000A89802F0D1FA9A9802F0CEFAA89802F0CB
:103AE000CBFA799802F0C8FAA89802F0C5FA7A9849
:103AF00002F0C2FAA89802F0BFFA7B9802F0BCFA72
:103B0000A89802F0B9FA7C9802F0B6FAA89802F0E8
:103B1000B3FA7D9802F0B0FAA89802F0ADFA7E9858
:103B200002F0AAFAA89802F0A7FAD52002F0A4FAA7
:103B3000A89802F0A1FA809802F09EFAA89802F0E4
:103B40009BFAA29802F098FAA89802F095FAE4205D
:103B500002F0A2FA7F9802F08FFAA89802F08CFA8D
:103B60007F9802F089FAA89802F086FA819802F00C
:103B700083FAA89802F080FA2A2002F07DFAA89829
:103B800002F07AFA829802F077FAA89802F074FAB2
:103B90004B20839002F070FAA89802F06DFA849896
:103BA00002F06AFAA89802F067FA7420859002F091
:103BB00063FAA89802F060FA869802F05DFAA89875
:103BC00002F05AFA9320879002F056FAA89802F071
:103BD00053FAA220889002F04FFAA89802F04CFA0B
:103BE000899802F049FAA89802F046FABE208A9015
:103BF00002F042FAA89802F03FFA8B9802F03CFAE1
:103C0000A89802F039FACD208C9002F035FAA898E5
:103C100002F032FAD3208D9002F02EFAA89802F02A
:103C20002BFA809802F028FAA89802F025FAA298B8
:103C300002F022FAA89802F01FFAE52002F02CFA0E
:103C4000A89802F019FAA89802F016FAA89802F0BB
:103C500013FAA89802F010FA819802F00DFAA898C9
:103C600002F00AFAA79802F007FAA89802F004FAFC
:103C7000829802F001FAA89802F0FEF9839802F007
:103C8000FBF9A89802F0F8F9849802F0F5F9A898E1
:103C900002F0F2F9859802F0EFF9A89802F0ECF939
:103CA000869802F0E9F9A89802F0E6F9879802F000
:103CB000E3F9A89802F0E0F9889802F0DDF9A898F5
:103CC00002F0DAF9899802F0D7F9A89802F0D4F94D
:103CD0008A9802F0D1F9A89802F0CEF98B9802F0F8
:103CE000CBF9A89802F0C8F98C9802F0C5F9A89809
:103CF00002F0C2F98D9802F0BFF9A89802F0BCF961
:103D00008E9802F0B9F9A89802F0B6F9A29802F0DC
:103D1000B3F9A89802F0B0F98F9802F0BDF9A59810
:103D200002F0AAF9A89802F0A7F9909802F0A4F975
:103D3000A89802F0A1F95620949002F09DF9A89855
:103D400002F09AF9929802F097F9A89802F094F983
:103D50007720999002F090F9A89802F08DF96620EA
:103D60009D9002F089F9A89802F086F99A9802F0DD
:103D700083F9A89802F080F99C9802F07DF9A89840
:103D800002F07AF9BB209B9002F076F9A89802F035
:103D900073F99C9802F070F9A89802F06DF99D985B
:103DA00002F06AF9A89802F067F95520AA9002F08B
:103DB00063F9A89802F060F9AA9802F05DF9A89852
:103DC00002F05AF9979802F057F9A89802F054F9BE
:103DD000432002F051F9A89802F04EF99E9802F0A3
:103DE0004BF9A89802F048F9E72002F055F99198AC
:103DF00002F042F9A89802F03FF9AA9802F03CF9C3
:103E0000A89802F039F9929802F036F9A89802F0D1
:103E100033F99D9802F030F9A89802F02DF9672047
:103E2000939002F029F9A89802F026F9939802F0ED
:103E300023F9A89802F020F98720989002F01CF945
:103E4000A89802F019F99C9802F016F9A89802F0C7
:103E500013F99B9802F010F9A89802F00DF99C98BC
:103E600002F00AF9A89802F007F9999802F004F90B
:103E7000A89802F001F99E9802F0FEF8A89802F0C6
:103E8000FBF8949802F0F8F8A89802F0F5F89598E5
:103E900002F0F2F8A89802F0EFF8969802F0ECF829
:103EA000A89802F0E9F8979802F0E6F8A89802F0CE
:103EB000E3F8E82002F0F0F8A89802F0DDF8A898FE
:103EC00002F0DAF89C9802F0D7F8A89802F0D4F83B
:103ED000989802F0D1F8A89802F0CEF89A9802F0DB
:103EE000CBF8A89802F0C8F8999802F0C5F8A898FD
:103EF00002F0C2F89D9802F0BFF8A89802F0BCF852
:103F00009A9802F0B9F8A89802F0B6F89F9802F0D3
:103F1000B3F8A89802F0B0F89B9802F0ADF8A89812
:103F200002F0AAF89C9802F0A7F8A89802F0A4F86A
:103F30009D9802F0A1F8A89802F09EF8AA9802F0C5
:103F40009BF8A89802F098F8AA9802F095F8A8981B
:103F500002F092F89E9802F08FF8A89802F08CF880
:103F60009E9802F089F8A89802F086F8AA9802F0C4
:103F700083F8A89802F080F8E92002F08DF89F9865
:103F800002F07AF8A89802F077F8A89802F074F88E
:103F9000A89802F071F8A89802F07EF89F9802F0B5
:103FA0006BF8CF2002F078F8A89802F065F8A8988E
:103FB00002F062F8A89802F05FF8A89802F05CF8A6
:103FC000A89802F059F8A89802F056F8A89802F0BC
:103FD00053F8A89802F050F8A89802F04DF8A89865
:103FE00002F04AF8A89802F047F8A89802F044F8BE
:103FF000A89802F041F8A89802F03EF8A89802F0BC
:104000003BF8A89802F038F8A89802F035F8A09884
:1040100002F042F8A89802F02FF8A19802F02CF8CC
:10402000A89802F029F8A89802F026F8A89802F0BB
:1040300023F8A29802F030F8A89802F01DF8F920B1
:1040400002F02AF8062002F017F8A39802F014F8FC
:10405000A79802F011F8A89802F00EF8A49802F0C0
:104060001BF8AA9802F008F8A59802F015F8A6988F
:1040700003F03CF8A79802F00FF8352002F00CF896
:10408000A89801F0F9FF512002F006F8A99801F074
:10409000F3FF532002F000F8AB9801F0EDFFAA986F
:1040A00001F0FAFF822001F0E7FFAB9801F0F4FF86
:1040B00001F034BB40F25440C2F20000808845F267
:1040C0001051884240F0A287FFE74FF470404390C0
:1040D00055215C9101F0FAFF4FF201004490AA21B2
:1040E000459101F0F3FF4FF20200469052214791B3
:1040F00001F0ECFF4FF2030048900821499101F0D4
:10410000E5FF4FF204004A900121529101F0DEFFD9
:104110004FF430400D212A9101F0D8FF2A994BF23B
:10412000010001F0D3FF2A994BF2020001F0CEFF0B
:104130004FF436404D903421379101F0C7FF379945
:104140004BF2016001F0C2FF37994BF2026001F0BF
:10415000BDFF2A994FF431404B9001F0B7FF2A99E7
:104160004BF201104C9001F0B1FF2A994BF2021072
:1041700001F0ACFF37994FF437404E9001F0A6FFA5
:1041800037994BF201704F9001F0A0FF37994BF235
:10419000027001F09BFF4FF4324000215B9101F06F
:1041A00095FF5B994BF2012001F090FF5B994BF278
:1041B000022001F08BFF4FF43840519024212C91C4
:1041C00001F084FF2C994BF60100539001F07EFF23
:1041D0002C994BF60200549001F078FF52994FF45D
:1041E0003F4001F073FF4FF433400F212B9101F05A
:1041F0006DFF2B994BF2013001F068FF2B994BF2C8
:10420000023001F063FF37994FF4394001F05EFF4F
:1042100037994BF6011001F059FF37994BF6021010
:1042200001F054FF49994FF4354001F04FFF49998F
:104230004BF2015001F04AFF49994BF2025001F054
:1042400045FF4FF442400321559101F03FFF2C9967
:104250004FF43A4001F03AFF2C994BF6012001F05F
:1042600035FF2C994BF6022001F030FF5B994FF49B
:104270003C40569001F02AFF4BF6014057907821C0
:104280005D9101F023FF5B994BF60240589001F0DD
:104290001DFF5B994FF43D4001F018FF5D994BF60F
:1042A000015001F013FF5B994BF6025001F00EFF35
:1042B0005B994FF43E4001F009FF4BF60160642129
:1042C00001F004FF5B994FF4514001F0FFFE4DF205
:1042D00001103321419101F0F9FE5B994DF202107A
:1042E00001F0F4FE37994DF2031001F0EFFE5B99F7
:1042F0004DF2041001F0EAFE4DF205103A212D9125
:1043000001F0E4FE5B994DF2061001F0DFFE4DF284
:1043100007104A212E9101F0D9FE5B994DF2081049
:1043200001F0D4FE4DF209105C212F9101F0CEFE78
:104330005B994DF20A1001F0C9FE4DF20B1081217C
:10434000309101F0C3FE5B994DF20C1001F0BEFEFE
:104350004DF20D10A621319101F0B8FE5B994DF29E
:104360000E1001F0B3FE4DF20F10E521329101F075
:10437000ADFE52994DF2101001F0A8FE4DF2111051
:104380001321339101F0A2FE52994DF2121001F067
:104390009DFE4DF213105421349101F097FE529975
:1043A0004DF2141001F092FE4DF21510822135915C
:1043B00001F08CFE52994DF2161001F087FE4DF27D
:1043C0001710CA21369101F081FE4DF2181002211A
:1043D000599101F07BFE5B994DF2191001F076FEC8
:1043E00059994DF21A1001F071FE52994DF21B10BD
:1043F00001F06CFE59994DF21C1001F067FE3799DF
:104400004DF21D1001F062FE59994DF21E1001F09F
:104410005DFE4DF21F106721389101F057FE59994A
:104420004DF2201001F052FE4DF2211084213991FD
:1044300001F04CFE59994DF2221001F047FE4DF269
:104440002310A4213A9101F041FE59994DF2241014
:1044500001F03CFE4DF22510B7213B9101F036FEF4
:1044600059994DF2261001F031FE4DF22710CF215F
:104470003C9101F02BFE59994DF2281001F026FED7
:104480004DF22910DE213D9101F020FE59994DF2A7
:104490002A1001F01BFE4DF22B10F2213E9101F08B
:1044A00015FE59994DF22C1001F010FE4DF22D1011
:1044B000FE213F9101F00AFE55994DF22E1001F0B8
:1044C00005FE4DF22F101021409101F0FFFD55998E
:1044D0004DF2301001F0FAFD41994DF2311001F02A
:1044E000F5FD55994DF2321001F0F0FD4DF233100B
:1044F0006D21429101F0EAFD5B994FF4524001F0C9
:10450000E5FD41994DF2012001F0E0FD5B994DF28E
:10451000022001F0DBFD37994DF2032001F0D6FDBA
:104520005B994DF2042001F0D1FD2D994DF205204B
:1045300001F0CCFD5B994DF2062001F0C7FD2E99EC
:104540004DF2072001F0C2FD5B994DF2082001F009
:10455000BDFD2F994DF2092001F0B8FD5B994DF298
:104560000A2001F0B3FD30994DF20B2001F0AEFDB1
:104570005B994DF20C2001F0A9FD31994DF20D200F
:1045800001F0A4FD5B994DF20E2001F09FFD3299E0
:104590004DF20F2001F09AFD52994DF2102001F0DA
:1045A00095FD33994DF2112001F090FD52994DF295
:1045B000122001F08BFD34994DF2132001F086FD9D
:1045C00052994DF2142001F081FD35994DF21520DC
:1045D00001F07CFD52994DF2162001F077FD3699DD
:1045E0004DF2172001F072FD59994DF2182001F09B
:1045F0006DFD5B994DF2192001F068FD59994DF25E
:104600001A2001F063FD52994DF21B2001F05EFD6E
:1046100059994DF21C2001F059FD37994DF21D209A
:1046200001F054FD59994DF21E2001F04FFD3899CB
:104630004DF21F2001F04AFD59994DF2202001F062
:1046400045FD39994DF2212001F040FD59994DF277
:10465000222001F03BFD3A994DF2232001F036FD76
:1046600059994DF2242001F031FD3B994DF225205E
:1046700001F02CFD59994DF2262001F027FD3C99BF
:104680004DF2272001F022FD59994DF2282001F02A
:104690001DFD3D994DF2292001F018FD59994DF26B
:1046A0002A2001F013FD3E994DF22B2001F00EFD62
:1046B00059994DF22C2001F009FD3F994DF22D2022
:1046C00001F004FD55994DF22E2001F0FFFC4099B8
:1046D0004DF22F2001F0FAFC55994DF2302001F0F7
:1046E000F5FC41994DF2312001F0F0FC55994DF265
:1046F000322001F0EBFC42994DF2332001F0E6FC50
:104700005B994FF4534001F0E1FC41994DF20130C7
:1047100001F0DCFC5B994DF2023001F0D7FC3799D7
:104720004DF2033001F0D2FC5B994DF2043001F000
:10473000CDFC2D994DF2053001F0C8FC5B994DF28E
:10474000063001F0C3FC2E994DF2073001F0BEFC9B
:104750005B994DF2083001F0B9FC2F994DF2093008
:1047600001F0B4FC5B994DF20A3001F0AFFC3099D6
:104770004DF20B3001F0AAFC5B994DF20C3001F0C8
:10478000A5FC31994DF20D3001F0A0FC5B994DF282
:104790000E3001F09BFC32994DF20F3001F096FC87
:1047A00052994DF2103001F091FC33994DF21130D5
:1047B00001F08CFC52994DF2123001F087FC3499D3
:1047C0004DF2133001F082FC52994DF2143001F099
:1047D0007DFC35994DF2153001F078FC52994DF27F
:1047E000163001F073FC36994DF2173001F06EFC73
:1047F00059994DF2183001F069FC5B994DF219306E
:1048000001F064FC59994DF21A3001F05FFC5299A5
:104810004DF21B3001F05AFC59994DF21C3001F059
:1048200055FC37994DF21D3001F050FC59994DF26D
:104830001E3001F04BFC38994DF21F3001F046FC60
:1048400059994DF2203001F041FC39994DF2213057
:1048500001F03CFC59994DF2223001F037FC3A99B5
:104860004DF2233001F032FC59994DF2243001F021
:104870002DFC3B994DF2253001F028FC59994DF261
:10488000263001F023FC3C994DF2273001F01EFC4C
:1048900059994DF2283001F019FC3D994DF229301B
:1048A00001F014FC59994DF22A3001F00FFC3E99A9
:1048B0004DF22B3001F00AFC59994DF22C3001F0E9
:1048C00005FC3F994DF22D3001F000FC55994DF259
:1048D0002E3001F0FBFB40994DF22F3001F0F6FB3A
:1048E00055994DF2303001F0F1FB41994DF23130E4
:1048F00001F0ECFB55994DF2323001F0E7FB4299A3
:104900004DF2333001F0E2FB5B994FF4544001F07B
:10491000DDFB41994DF2014001F0D8FB5B994DF26E
:10492000024001F0D3FB37994DF2034001F0CEFB7A
:104930005B994DF2044001F0C9FB2D994DF2054001
:1049400001F0C4FB5B994DF2064001F0BFFB2E99CC
:104950004DF2074001F0BAFB5B994DF2084001F0BF
:10496000B5FB2F994DF2094001F0B0FB5B994DF278
:104970000A4001F0ABFB30994DF20B4001F0A6FB71
:104980005B994DF20C4001F0A1FB31994DF20D40C5
:1049900001F09CFB5B994DF20E4001F097FB3299C0
:1049A0004DF20F4001F092FB52994DF2104001F090
:1049B0008DFB33994DF2114001F088FB52994DF275
:1049C000124001F083FB34994DF2134001F07EFB5D
:1049D00052994DF2144001F079FB35994DF2154092
:1049E00001F074FB52994DF2164001F06FFB3699BD
:1049F0004DF2174001F06AFB59994DF2184001F051
:104A000065FB5B994DF2194001F060FB59994DF23D
:104A10001A4001F05BFB52994DF21B4001F056FB2E
:104A200059994DF21C4001F051FB37994DF21D4050
:104A300001F04CFB59994DF21E4001F047FB3899AB
:104A40004DF21F4001F042FB59994DF2204001F018
:104A50003DFB39994DF2214001F038FB59994DF257
:104A6000224001F033FB3A994DF2234001F02EFB36
:104A700059994DF2244001F029FB3B994DF2254014
:104A800001F024FB59994DF2264001F01FFB3C999F
:104A90004DF2274001F01AFB59994DF2284001F0E0
:104AA00015FB3D994DF2294001F010FB59994DF24B
:104AB0002A4001F00BFB3E994DF22B4001F006FB22
:104AC00059994DF22C4001F001FB3F994DF22D40D8
:104AD00001F0FCFA55994DF22E4001F0F7FA409999
:104AE0004DF22F4001F0F2FA55994DF2304001F0AD
:104AF000EDFA41994DF2314001F0E8FA55994DF245
:104B0000324001F0E3FA42994DF2334001F0DEFA0F
:104B10005B994FF4554001F0D9FA41994DF201509B
:104B200001F0D4FA5B994DF2025001F0CFFA3799B7
:104B30004DF2035001F0CAFA5B994DF2045001F0B6
:104B4000C5FA2D994DF2055001F0C0FA5B994DF26E
:104B5000065001F0BBFA2E994DF2075001F0B6FA5B
:104B60005B994DF2085001F0B1FA2F994DF20950BE
:104B700001F0ACFA5B994DF20A5001F0A7FA3099B6
:104B80004DF20B5001F0A2FA5B994DF20C5001F07E
:104B90009DFA31994DF20D5001F098FA5B994DF262
:104BA0000E5001F093FA32994DF20F5001F08EFA47
:104BB00052994DF2105001F089FA33994DF211508B
:104BC00001F084FA52994DF2125001F07FFA3499B3
:104BD0004DF2135001F07AFA52994DF2145001F04F
:104BE00075FA35994DF2155001F070FA52994DF25F
:104BF000165001F06BFA36994DF2175001F066FA33
:104C000059994DF2185001F061FA5B994DF2195023
:104C100001F05CFA59994DF21A5001F057FA529985
:104C20004DF21B5001F052FA59994DF21C5001F00F
:104C30004DFA37994DF21D5001F048FA59994DF24D
:104C40001E5001F043FA38994DF21F5001F03EFA20
:104C500059994DF2205001F039FA39994DF221500D
:104C600001F034FA59994DF2225001F02FFA3A9995
:104C70004DF2235001F02AFA59994DF2245001F0D7
:104C800025FA3B994DF2255001F020FA59994DF241
:104C9000265001F01BFA3C994DF2275001F016FA0C
:104CA00059994DF2285001F011FA3D994DF22950D1
:104CB00001F00CFA59994DF22A5001F007FA3E9989
:104CC0004DF22B5001F002FA59994DF22C5001F09F
:104CD000FDF93F994DF22D5001F0F8F955994DF23B
:104CE0002E5001F0F3F940994DF22F5001F0EEF9FA
:104CF00055994DF2305001F0E9F941994DF231509A
:104D000001F0E4F955994DF2325001F0DFF9429982
:104D10004DF2335001F0DAF95B994FF4564001F04F
:104D2000D5F941994DF2016001F0D0F95B994DF24E
:104D3000026001F0CBF937994DF2036001F0C6F93A
:104D40005B994DF2046001F0C1F92D994DF20560B7
:104D500001F0BCF95B994DF2066001F0B7F92E99AC
:104D60004DF2076001F0B2F95B994DF2086001F075
:104D7000ADF92F994DF2096001F0A8F95B994DF258
:104D80000A6001F0A3F930994DF20B6001F09EF931
:104D90005B994DF20C6001F099F931994DF20D607B
:104DA00001F094F95B994DF20E6001F08FF93299A0
:104DB0004DF20F6001F08AF952994DF2106001F046
:104DC00085F933994DF2116001F080F952994DF255
:104DD000126001F07BF934994DF2136001F076F91D
:104DE00052994DF2146001F071F935994DF2156048
:104DF00001F06CF952994DF2166001F067F936999D
:104E00004DF2176001F062F959994DF2186001F006
:104E10005DF95B994DF2196001F058F959994DF21D
:104E20001A6001F053F952994DF21B6001F04EF9EE
:104E300059994DF21C6001F049F937994DF21D6006
:104E400001F044F959994DF21E6001F03FF938998B
:104E50004DF21F6001F03AF959994DF2206001F0CE
:104E600035F939994DF2216001F030F959994DF237
:104E7000226001F02BF93A994DF2236001F026F9F6
:104E800059994DF2246001F021F93B994DF22560CA
:104E900001F01CF959994DF2266001F017F93C997F
:104EA0004DF2276001F012F959994DF2286001F096
:104EB0000DF93D994DF2296001F008F959994DF22B
:104EC0002A6001F003F93E994DF22B6001F0FEF8E3
:104ED00059994DF22C6001F0F9F83F994DF22D608F
:104EE00001F0F4F855994DF22E6001F0EFF8409979
:104EF0004DF22F6001F0EAF855994DF2306001F063
:104F0000E5F841994DF2316001F0E0F855994DF224
:104F1000326001F0DBF842994DF2336001F0D6F8CF
:104F200043985C9901F0D2F84498459901F0CEF885
:104F30004698479901F0CAF84898499901F0C6F88F
:104F40004A985B9901F0C2F84B98CC2101F0BEF869
:104F50004C985B9901F0BAF84D98052101F0B6F82C
:104F60004E987021509101F0B1F84F98509901F08E
:104F7000ADF85198529901F0A9F85398559901F05C
:104F8000A5F85498559901F0A1F855994BF60300EE
:104F900001F09CF85698599901F098F857985B9948
:104FA00001F094F858985B9901F090F84FF449405B
:104FB000D02101F08BF859994CF6011001F086F8D8
:104FC0004CF6021050215A9101F080F85A994CF693
:104FD000031001F07BF85A994CF6041001F076F8B2
:104FE0005B994FF4545001F071F85C994FF468509C
:104FF00001F06CF84FF4885001F04EF85D9802F023
:10500000A7F84FF4245001F047F886E340F25440EB
:10501000C2F20000808847F29671884240F0EE802C
:10502000FFE7112001F038F87820289002F05EF8B0
:105030003620239001F030F8482001F01DF83A2086
:1050400001F02AF8552001F017F8F020279001F020
:1050500023F8C32001F010F8279801F01DF89620DE
:1050600001F00AF8B42001F017F8012001F004F86B
:10507000B62001F011F80A2000F0FEFFA22000F097
:10508000FBFFB72001F008F8C62000F0F5FFB920BB
:1050900001F002F8022000F0EFFFE020229000F083
:1050A000EBFFC02000F0F8FF802000F0E5FF1620A5
:1050B0001F9000F0E1FFC12000F0EEFF19202190C9
:1050C00000F0DAFFC22000F0E7FFA72000F0D4FFD5
:1050D000C52000F0E1FF1F9800F0CEFFE82000F0AF
:1050E000DBFF402000F0C8FF8A2000F0C5FF002051
:1050F000209000F0C1FF209800F0BEFF29202990E9
:1051000000F0BAFF219800F0B7FFA52000F0B4FF2F
:10511000332000F0B1FF229800F0BEFF279800F086
:10512000ABFF072000F0A8FF0D2000F0A5FF042032
:1051300000F0A2FF052000F09FFF1420249000F053
:105140009BFF239800F098FF542000F095FF4C201F
:10515000259000F091FF382000F08EFF132000F022
:105160008BFF249800F088FF2E2000F085FF34206C
:1051700000F082FFE12000F08FFF279800F07CFF15
:105180001020269000F078FF249800F075FF0E2084
:1051900000F072FF0C2000F06FFF082000F06CFFA1
:1051A000352000F069FF442000F066FF259800F0EC
:1051B00063FF262000F060FF269800F05DFF1220BC
:1051C00000F05AFF2C2000F057FF322000F054FF6F
:1051D000279800F061FF3C2000F04EFF279800F078
:1051E0005BFF692000F048FF289801F07FFF212035
:1051F00000F052FF299800F04FFF8DE240F254403A
:10520000C2F20000808849F60601884240F0B5816C
:10521000FFE7FF200A9000F03FFF0A9800F02CFF04
:10522000982000F029FF0620169000F025FFBC20F2
:1052300000F032FF01201B9000F01EFF0F2019909C
:1052400000F01AFF612000F017FF0A9800F014FF29
:105250001B9800F011FF1B9800F00EFF0B2013901D
:1052600000F00AFF1020129000F006FF372000F037
:1052700003FF632000F000FF0A9800F0FDFE0A988B
:1052800000F0FAFE1B9800F0F7FE1B9800F0F4FE09
:1052900000201E9000F0F0FE1E9800F0EDFE0A982F
:1052A00000F0EAFE522000F0E7FE1B9800F0E4FE5A
:1052B0001E9800F0E1FE40200F9000F0DDFEBD20C2
:1052C00000F0EAFE1B9800F0D7FE23200B9000F0C0
:1052D000D3FE45200C9000F0CFFE67200D9000F02B
:1052E000CBFE1B9800F0C8FE0B9800F0C5FE0C9892
:1052F00000F0C2FE0D9800F0BFFEBE2000F0CCFE14
:105300001E9800F0B9FE1B9800F0B6FEAB2000F02E
:10531000B3FE602000F0B0FE22200E9000F0ACFE44
:105320000E9800F0A9FE0E9800F0A6FE0E9800F070
:10533000A3FE0E9800F0A0FEC72000F0ADFE3620C0
:105340001D9000F099FEED2000F0A6FE7F2000F0F9
:1053500093FE199800F090FEC02000F09DFE199871
:1053600000F08AFE139800F087FE0A20179000F0E4
:1053700083FEFC2000F090FE082000F07DFEDF2080
:105380001C9000F089FE1E9800F076FE1E9800F03A
:1053900073FE1E9800F070FE1E9800F06DFE1E98C1
:1053A00000F06AFE2020119000F066FEF32000F06D
:1053B00073FE742000F060FEB42000F06DFE1E98B5
:1053C00000F05AFE1E9800F057FE1E9800F054FEA2
:1053D000F72000F061FE822000F04EFEB12000F0C8
:1053E0005BFE1E9800F048FE1320149000F044FE6F
:1053F000149800F041FEF22000F04EFE802000F0F4
:105400003BFE042000F038FE0F9800F035FE282007
:1054100000F032FEC12000F03FFE172000F02CFE0D
:105420008820109000F028FE109800F025FE1198BA
:1054300000F022FEE02000F02FFE1E9800F01CFE7F
:10544000179800F019FE122000F016FE129800F0D6
:1054500013FE0E20189000F00FFE119800F00CFEC5
:10546000CC2000F009FE072000F006FE169800F0A0
:1054700003FE139800F000FE189800F0FDFD199847
:1054800000F0FAFD0D20159000F0F6FD15201A90A1
:1054900000F0F2FD129800F0EFFD1E9800F0ECFD18
:1054A000E12000F0F9FD1E9800F0E6FD139800F0F1
:1054B000E3FD149800F0E0FD159800F0DDFD18986C
:1054C00000F0DAFD1B2000F0D7FD712000F0D4FDC4
:1054D000169800F0D1FD169800F0CEFD179800F058
:1054E000CBFD199800F0C8FD189800F0C5FD19987B
:1054F00000F0C2FD1A9800F0BFFD0C2000F0BCFDCA
:105500001E9800F0B9FD2A2000F0C6FD1E9800F09C
:10551000B3FD1E9800F0B0FD1B9800F0ADFD1C9887
:1055200000F0AAFD2B2000F0B7FD1E9800F0A4FDAE
:105530001E9800F0A1FD032000F09EFD1F2000F04A
:105540009BFD3A2000F0A8FD552000F095FD1D9828
:1055500000F0A2FD1E9800F08FFD112000F09CFDD0
:10556000782001F0C3FD292000F096FD142001F001
:10557000BDFD2C2000F090FDCDE040F25440C2F281
:105580000000808841F66311884240F0C380FFE745
:10559000E22000F081FD1D2000F06EFD022005904C
:1055A00000F06AFD0420049000F066FD642009907C
:1055B00001F0CEFDE020019000F06EFD012008908A
:1055C00000F05AFD0A20029001F090FD019800F0D1
:1055D00063FD0320079000F04FFD0C2001F086FDD5
:1055E000089800F059FD029801F080FDE62000F0D7
:1055F00053FD2F2000F040FDFF20039000F03CFD04
:10560000039800F039FDB02000F046FD202000F0A6
:1056100033FD0020069000F02FFD079800F02CFDD0
:1056200040F21F3000F028FD089800F025FD40F200
:10563000DF1000F021FD069800F01EFDB42000F000
:105640002BFD049800F018FD40F21F4000F014FDFF
:10565000069800F011FD2E2000F00EFD069800F0D7
:105660000BFD069800F008FD069800F005FD069871
:1056700000F002FDB62000F00FFD059800F0FCFCE4
:105680004FF4037000F0F8FC069800F0F5FC1720CA
:1056900000F0F2FC152000F0EFFC069800F0ECFCA6
:1056A000069800F0E9FCF02000F0F6FC079800F006
:1056B000E3FC292000F0F0FCD02000F0EDFC06987F
:1056C00000F0DAFCBE2000F0E7FC052000F0D4FC7E
:1056D000FE2000F0D1FC089800F0CEFC069800F007
:1056E000CBFC069800F0C8FC069800F0C5FCB8207A
:1056F00000F0D2FC079800F0BFFC089800F0BCFC5A
:10570000BA2000F0C9FC089800F0B6FC099800F037
:105710003BF8FFE7FFE7FFE7FFE7FFE7FFE7FFE70C
:105720000020FCF737FE48F2BC21C4F240210120E2
:1057300008604FF6FF70FCF701FE0DF57C7D80BD23
:1057400082B08DF807008DF8061001200090FFE769
:105750009DF80600411E8DF8061030B1FFE79DF858
:105760000710009848430090F2E7009802B0704795
:1057700081B08020C6F600400088ADF80200BDF878
:10578000020001B07047000080B582B08DF80700BC
:10579000BE2000F081FC052000F06EFC9DF80700A3
:1057A00002F04FFB41EC100B9FED0F1B53EC112B44
:1057B00051EC100B02F05CFB41EC100B51EC100BA8
:1057C00002F010FB00F058FC012000F055FCFF2017
:1057D00000F052FC0020009000F04EFC009800F019
:1057E0004BFC02B080BD00BF66666666666604401C
:1057F00080B588B08DF81F000020ADF81C00ADF812
:105800001A0040F25440C2F20000807901280AD107
:10581000FFE740F25440C2F20000808841F6631175
:10582000884212D1FFE740F25440C2F20000807972
:10583000002838D1FFE740F25440C2F200008088CF
:1058400041F6631188422ED1FFE79DF81F00014603
:105850000591072826D80599DFE801F004080C1007
:1058600014181C2006208DF81F001BE007208DF85F
:105870001F0017E004208DF81F0013E005208DF8AD
:105880001F000FE001208DF81F000BE000208DF8B5
:105890001F0007E003208DF81F0003E002208DF8B1
:1058A0001F00FFE7FFE79DF81F000146049107284E
:1058B00038D80499DFE801F004050C131A21282FC9
:1058C00030E0BDF81C0040F08000ADF81C0029E07D
:1058D000BDF81C0040F04000ADF81C0022E0BDF80F
:1058E0001C0040F0C000ADF81C001BE0BDF81C001F
:1058F00040F02000ADF81C0014E0BDF81C0040F0A2
:105900006000ADF81C000DE0BDF81C0040F0A000E8
:10591000ADF81C0006E0BDF81C0040F0E000ADF85A
:105920001C00FFE740F25440C2F20000808845F2BC
:105930001051884205D1FFE74FF45850ADF81A00D6
:1059400003E03620ADF81A00FFE740F25440C2F2FF
:105950000000808849F24131884214D0FFE740F2CC
:105960005440C2F20000808847F2897188420AD010
:10597000FFE740F25440C2F20000808847F296717F
:10598000884207D1FFE7BDF81C0040F00800ADF8E1
:105990001C00FFE7BDF81A00BDF81C1000F096FBD4
:1059A00040F25440C2F20000808841F66311884200
:1059B00035D0FFE7BDF81C008006002817D5FFE7AB
:1059C00040F25441C2F200010888498888420DDA49
:1059D000FFE740F25441C2F200010888ADF8180018
:1059E00048880880BDF818004880FFE716E040F2BC
:1059F0005441C2F200010888498888420DDDFFE762
:105A000040F25441C2F200010888ADF818004888FD
:105A10000880BDF818004880FFE7FFE7FFE740F285
:105A20005440C2F20000808845F21051884258D19B
:105A3000FFE740F25440C2F200000390408900F0BA
:105A40002BFB0020029000F017FB039840890130E7
:105A500080B200F021FB029800F00EFB0398408911
:105A6000023080B200F018FB039800880138C0F3C0
:105A70000F2000F001FB03984089033080B200F052
:105A80000BFB039800880138C0B200F0F5FA0398C8
:105A9000808900F001FB029800F0EEFA03988089FB
:105AA000013080B200F0F8FA029800F0E5FA0398AD
:105AB0008089023080B200F0EFFA03984088013804
:105AC000C0F30F2000F0D8FA03988089033080B229
:105AD00000F0E2FA039840880138C0B200F0CCFA36
